:0400000007EF00F016
:0A00080072820BED08F024EF0AF0FD
:10100000003738392F3435362A3132332D23303DED
:051010002B2564000027
:101016000600F2A811EF08F013EF08F01CEF08F035
:10102600F2A218EF08F01AEF08F01CEF08F0A8EC8F
:101036000AF0F0A621EF08F023EF08F02CEF08F0F5
:10104600F0A028EF08F02AEF08F02CEF08F0A6EC45
:101056000AF0F0A831EF08F033EF08F03CEF08F0A3
:10106600F0A238EF08F03AEF08F03CEF08F0A4ECF5
:101076000AF0F2A641EF08F043EF08F05EEF08F041
:10108600F2A048EF08F04AEF08F05EEF08F081A8FA
:101096004FEF08F051EF08F05EEF08F06F04D8A4A8
:1010A60057EF08F059EF08F05EEF08F0000E6F6E8C
:1010B600010E7BEC0AF0F2A663EF08F065EF08F08C
:1010C60080EF08F0F2A06AEF08F06CEF08F080EF0E
:1010D60008F081B871EF08F073EF08F080EF08F0C0
:1010E6006F50D8A479EF08F07BEF08F080EF08F096
:1010F600010E6F6E000E7BEC0AF0F2A685EF08F08B
:1011060087EF08F0A2EF08F0F2A08CEF08F08EEF60
:1011160008F0A2EF08F081AA93EF08F095EF08F027
:10112600A2EF08F06E04D8A49BEF08F09DEF08F03C
:10113600A2EF08F0000E6E6E010E6EEC0AF0F2A63B
:10114600A7EF08F0A9EF08F0C4EF08F0F2A0AEEFA1
:1011560008F0B0EF08F0C4EF08F081BAB5EF08F078
:10116600B7EF08F0C4EF08F06E50D8A4BDEF08F052
:10117600BFEF08F0C4EF08F0010E6E6E000E6EECC5
:101186000AF0F2A6C9EF08F0CBEF08F0E6EF08F098
:10119600F2A0D0EF08F0D2EF08F0E6EF08F081AC4D
:1011A600D7EF08F0D9EF08F0E6EF08F06D04D8A401
:1011B600DFEF08F0E1EF08F0E6EF08F0000E6D6EE5
:1011C600010E61EC0AF0F2A6EBEF08F0EDEF08F085
:1011D60008EF09F0F2A0F2EF08F0F4EF08F008EFDC
:1011E60009F081BCF9EF08F0FBEF08F008EF09F011
:1011F6006D50D8A401EF09F003EF09F008EF09F0EC
:10120600010E6D6E000E61EC0AF0F2A60DEF09F00C
:101216000FEF09F02AEF09F0F2A014EF09F016EF2C
:1012260009F02AEF09F081AE1BEF09F01DEF09F076
:101236002AEF09F06C04D8A423EF09F025EF09F092
:101246002AEF09F0000E6C6E010E54EC0AF0F2A6BD
:101256002FEF09F031EF09F04CEF09F0F2A036EF6D
:1012660009F038EF09F04CEF09F081BE3DEF09F0C7
:101276003FEF09F04CEF09F06C50D8A445EF09F0A8
:1012860047EF09F04CEF09F0010E6C6E000E54ECBE
:101296000AF09DAC51EF09F053EF09F05CEF09F04D
:1012A6009EAC58EF09F05AEF09F05CEF09F0B5EC87
:1012B6000AF0F2AA61EF09F063EF09F06CEF09F0AA
:1012C600F2A468EF09F06AEF09F06CEF09F094EC0C
:1012D6000AF09DA071EF09F073EF09F07CEF09F0B9
:1012E6009EA078EF09F07AEF09F07CEF09F08EEC1A
:1012F6000AF09DA281EF09F083EF09F08CEF09F067
:101306009EA288EF09F08AEF09F08CEF09F09EECB7
:101316000AF0A0A291EF09F093EF09F09CEF09F013
:10132600A1A298EF09F09AEF09F09CEF09F088EC7A
:101336000AF09DA4A1EF09F0A3EF09F0ACEF09F0C4
:101346009EA4A8EF09F0AAEF09F0ACEF09F0B2EC01
:101356000AF0A0A0B1EF09F0B3EF09F0BCEF09F075
:10136600A1A0B8EF09F0BAEF09F0BCEF09F0B0ECB4
:101376000AF09DA8C1EF09F0C3EF09F0CCEF09F020
:101386009EA8C8EF09F0CAEF09F0CCEF09F0AEEC61
:101396000AF09DAAD1EF09F0D3EF09F0DCEF09F0CE
:1013A6009EAAD8EF09F0DAEF09F0DCEF09F0B4EC09
:1013B6000AF09DA6E1EF09F0E3EF09F0F7EF09F077
:1013C6009EA6E8EF09F0EAEF09F0F7EF09F0C6503C
:1013D6000F0B716E060E7160F3EF09F0F5EF09F071
:1013E600F7EF09F0A2EC0AF09DA6FCEF09F0FEEF7C
:1013F60009F012EF0AF09EA603EF0AF005EF0AF0D5
:1014060012EF0AF0C6500F0B716E050E71640EEFE7
:101416000AF010EF0AF012EF0AF0AAEC0AF0A0A602
:1014260017EF0AF019EF0AF022EF0AF0A1A61EEF55
:101436000AF020EF0AF022EF0AF0ACEC0AF0729202
:1014460011007E0EF66E140EF76E000EF86E00EEAC
:1014560047F010EE29F00900F5CFEEFFE550E15018
:10146600FAE100EE01F0460EEE6AE806FDE1729042
:10147600729200019AEF0AF0800F810F820F830F9C
:10148600840F890F8A0F8B0F8C0F8D0F920F930F7E
:10149600940F950F960F685A622A1A622A01010163
:0114A6000144
:1014A800706EF2907050D8A45CEF0AF05EEF0AF00C
:1014B80060EF0AF060EF0AF01200706EF290705060
:1014C800D8A469EF0AF06BEF0AF06DEF0AF06DEF40
:1014D8000AF01200706EF2907050D8A476EF0AF0FD
:1014E80078EF0AF07AEF0AF07AEF0AF01200706EDD
:1014F800F2907050D8A483EF0AF085EF0AF087EFD6
:101508000AF087EF0AF01200A1920850B36E07C0E4
:10151800B2FF12009E900E50CF6E0DC0CEFF12008B
:10152800F2941250D76E11C0D6FF12009AEF0AF04B
:1015380007EF00F09E9237C0CCFF12009E96120073
:10154800F0921200F0901200F29212009E96120091
:10155800A19612009D981200A19012009E9412006C
:04156800120012005B
:020000040030CA
:0E000000FF02091EFF8181FF0FC00FE00F40BD
:00000001FF
