:0400000007EF00F016
:0A00080075820BED08F050EF0CF0CC
:10100000003738392F3435362A3132332D23303DED
:051010002B2564000027
:101016000600FACF69F0FBCF6AF0F2A815EF08F0E8
:1010260017EF08F020EF08F0F2A21CEF08F01EEF11
:1010360008F020EF08F099EC0CF0F0A625EF08F088
:1010460027EF08F030EF08F0F0A02CEF08F02EEFB5
:1010560008F030EF08F082EC0CF0F0A835EF08F05D
:1010660037EF08F040EF08F0F0A23CEF08F03EEF53
:1010760008F040EF08F06BEC0CF0F2A645EF08F034
:1010860047EF08F061EF08F0F2A04CEF08F04EEFE2
:1010960008F061EF08F081A853EF08F055EF08F06B
:1010A60061EF08F06004D8A45BEF08F05DEF08F08C
:1010B60061EF08F0606A010E36EC0DF0F2A666EFFD
:1010C60008F068EF08F083EF08F0F2A06DEF08F083
:1010D6006FEF08F083EF08F081B874EF08F076EF51
:1010E60008F083EF08F06050D8A47CEF08F07EEF9C
:1010F60008F083EF08F0010E606E000E36EC0DF07E
:10110600F2A688EF08F08AEF08F0A4EF08F0F2A044
:101116008FEF08F091EF08F0A4EF08F081AA96EFA0
:1011260008F098EF08F0A4EF08F05F04D8A49EEF4B
:1011360008F0A0EF08F0A4EF08F05F6A010E29ECB2
:101146000DF0F2A6A9EF08F0ABEF08F0C6EF08F035
:10115600F2A0B0EF08F0B2EF08F0C6EF08F081BADF
:10116600B7EF08F0B9EF08F0C6EF08F05F50D8A463
:10117600BFEF08F0C1EF08F0C6EF08F0010E5F6E92
:10118600000E29EC0DF0F2A6CBEF08F0CDEF08F03B
:10119600E7EF08F0F2A0D2EF08F0D4EF08F0E7EF9F
:1011A60008F081ACD9EF08F0DBEF08F0E7EF08F0C4
:1011B6005E04D8A4E1EF08F0E3EF08F0E7EF08F0EB
:1011C6005E6A010E1CEC0DF0F2A6ECEF08F0EEEFF5
:1011D60008F009EF09F0F2A0F3EF08F0F5EF08F0D8
:1011E60009EF09F081BCFAEF08F0FCEF08F009EF0F
:1011F60009F05E50D8A402EF09F004EF09F009EFF8
:1012060009F0010E5E6E000E1CEC0DF0F2A60EEF5C
:1012160009F010EF09F02AEF09F0F2A015EF09F036
:1012260017EF09F02AEF09F081AE1CEF09F01EEF67
:1012360009F02AEF09F05D04D8A424EF09F026EF9F
:1012460009F02AEF09F05D6A010E0FEC0DF0F2A627
:101256002FEF09F031EF09F04CEF09F0F2A036EF6D
:1012660009F038EF09F04CEF09F081BE3DEF09F0C7
:101276003FEF09F04CEF09F05D50D8A445EF09F0B7
:1012860047EF09F04CEF09F0010E5D6E000E0FEC12
:101296000DF09DAC51EF09F053EF09F05CEF09F04A
:1012A6009EAC58EF09F05AEF09F05CEF09F074ECC8
:1012B6000DF0F2AA61EF09F063EF09F06CEF09F0A7
:1012C600F2A468EF09F06AEF09F06CEF09F05AEC46
:1012D6000DF09DA071EF09F073EF09F07CEF09F0B6
:1012E6009EA078EF09F07AEF09F07CEF09F054EC54
:1012F6000DF09DA281EF09F083EF09F08CEF09F064
:101306009EA288EF09F08AEF09F08CEF09F060ECF5
:101316000DF0A0A291EF09F093EF09F09CEF09F010
:10132600A1A298EF09F09AEF09F09CEF09F04EECB4
:101336000DF09DA4A1EF09F0A3EF09F0ACEF09F0C1
:101346009EA4A8EF09F0AAEF09F0ACEF09F071EC42
:101356000DF0A0A0B1EF09F0B3EF09F0BCEF09F072
:10136600A1A0B8EF09F0BAEF09F0BCEF09F06FECF5
:101376000DF09DA8C1EF09F0C3EF09F0CCEF09F01D
:101386009EA8C8EF09F0CAEF09F0CCEF09F06DECA2
:101396000DF09DAAD1EF09F0D3EF09F0DCEF09F0CB
:1013A6009EAAD8EF09F0DAEF09F0DCEF09F073EC4A
:1013B6000DF09DA6E1EF09F0E3EF09F0F7EF09F074
:1013C6009EA6E8EF09F0EAEF09F0F7EF09F0C6503C
:1013D6000F0B686E060E6860F3EF09F0F5EF09F083
:1013E600F7EF09F067EC0DF09DA6FCEF09F0FEEFB4
:1013F60009F012EF0AF09EA603EF0AF005EF0AF0D5
:1014060012EF0AF0C6500F0B686E050E68640EEFF9
:101416000AF010EF0AF012EF0AF069EC0DF0A0A640
:1014260017EF0AF019EF0AF022EF0AF0A1A61EEF55
:101436000AF020EF0AF022EF0AF06BEC0DF06AC01A
:10144600FBFF69C0FAFF75921100010E6E6E6B50BC
:10145600D8A430EF0AF032EF0AF095EF0AF06E6A80
:10146600B3EF0AF06B50D96EDA6A050ED926DF5053
:10147600D8A440EF0AF042EF0AF045EF0AF0F19CDB
:10148600B3EF0AF06B50D96EDA6A050ED926DE0480
:10149600D8A450EF0AF052EF0AF0B3EF0AF0F18C3D
:1014A600B3EF0AF06B50D96EDA6A050ED926DF5013
:1014B600D8A460EF0AF062EF0AF065EF0AF0F19A3D
:1014C600B3EF0AF06B50D96EDA6A050ED926DE0440
:1014D600D8A470EF0AF072EF0AF0B3EF0AF0F18ABF
:1014E600B3EF0AF06B50D96EDA6A050ED926DF50D3
:1014F600D8A480EF0AF082EF0AF085EF0AF0F1989F
:10150600B3EF0AF06B50D96EDA6A050ED926DE04FF
:10151600D8A490EF0AF092EF0AF0B3EF0AF0F18840
:10152600B3EF0AF06B50D96EDA6A030ED926DF5094
:101536006C6E6D6A6D50000AD8B4A4EF0AF032EFF3
:101546000AF06C50000AD8B435EF0AF0010AD8B494
:1015560055EF0AF0030AD8B475EF0AF032EF0AF035
:101566006E501200010E706E6B50D8B4BDEF0AF0CB
:10157600BFEF0AF0CFEF0AF06B50D96EDA6ADF30B0
:10158600E832E832070B6C6E070E6C64CDEF0AF09A
:10159600CFEF0AF01BEF0BF0706A31EF0BF06B50D8
:1015A600D96EDA6ADF30E832E832070B6C6E010E6C
:1015B6006D6E6C2AE1EF0AF0D8906D366C2EDFEF77
:1015C6000AF06B50D96EDA6ADF50070B6E6E6E50FA
:1015D600510FD96EDA6ADF50D96EDA6A6D50DF12B2
:1015E60031EF0BF06B50D96EDA6ADF30E832E83251
:1015F600070B6C6E010E6D6E6C2A04EF0BF0D89023
:101606006D366C2E02EF0BF06D50FF0A6E6E6B504E
:10161600D96EDA6ADF50070B6F6E6F50510FD96EB5
:10162600DA6ADF50D96EDA6A6E50DF1631EF0BF0E8
:101636006B50D96EDA6ADFBC23EF0BF026EF0BF0A6
:10164600010E27EF0BF0000E000AD8B4F5EF0AF0F2
:10165600010AD8B4D2EF0AF0CFEF0AF070501200A8
:101666006E50D8A439EF0BF03BEF0BF062EF0BF0A6
:10167600716A80EF0BF06E50D96EDA6ADECF6BF0CE
:10168600DDCF6CF0D8EC0CF0716E80EF0BF06E5085
:10169600D96EDA6ADECF6BF0DDCF6CF0C4EC0CF0FD
:1016A600716E80EF0BF06E50D96EDA6ADECF6BF09A
:1016B600DDCF6CF0B0EC0CF0716E80EF0BF06E507D
:1016C600D96EDA6A030ED926DF506F6E706A7050D3
:1016D600000AD8B471EF0BF03BEF0BF06F50000A25
:1016E600D8B43EEF0BF0010AD8B44AEF0BF0030A68
:1016F600D8B456EF0BF03BEF0BF071501200010E11
:101706006E6E6B50D8A48AEF0BF08CEF0BF09BEF4C
:101716000BF06E6AB9EF0BF0F28EF288B9EF0BF0B0
:10172600F28EF086B9EF0BF0F28EF088B9EF0BF07F
:101736006B50D96EDA6A030ED926DF506C6E6D6A6D
:101746006D50000AD8B4AAEF0BF08CEF0BF06C507A
:10175600000AD8B48FEF0BF0010AD8B493EF0BF060
:10176600030AD8B497EF0BF08CEF0BF06E50120013
:10177600010E6E6E6B50D8A4C3EF0BF0C5EF0BF0E5
:10178600D1EF0BF06E6AEFEF0BF0F292EFEF0BF08A
:10179600F090EFEF0BF0F092EFEF0BF06B50D96E8D
:1017A600DA6A030ED926DF506C6E6D6A6D50000A38
:1017B600D8B4E0EF0BF0C5EF0BF06C50000AD8B4CC
:1017C600C8EF0BF0010AD8B4CBEF0BF0030AD8B47C
:1017D600CEEF0BF0C5EF0BF06E501200010E6E6EE1
:1017E6006B50D8A4F9EF0BF0FBEF0BF007EF0CF002
:1017F6006E6A25EF0CF0F29825EF0CF0F09625EFC7
:101806000CF0F09825EF0CF06B50D96EDA6A030EE7
:10181600D926DF506C6E6D6A6D50000AD8B416EF8B
:101826000CF0FBEF0BF06C50000AD8B4FEEF0BF097
:10183600010AD8B401EF0CF0030AD8B404EF0CF097
:10184600FBEF0BF06E5012007350D8A42DEF0CF086
:101856002FEF0CF031EF0CF04FEF0CF073C06BF084
:10186600F1EC0BF0746E73C06BF0BBEC0BF07416FE
:1018760073C06BF028EC0AF0741673C071F0ECECD0
:101886000CF0741673C06EF033EC0BF0741673C064
:101896006BF082EC0BF074161200FE0EF66E190E4B
:1018A600F76E000EF86E00EE47F010EE20F009001D
:1018B600F5CFEEFFE550E150FAE100EE01F0460EFD
:1018C600EE6AE806FDE175907592000143EF0DF0B2
:1018D600F09227502810D8B473EF0CF075EF0CF087
:1018E60081EF0CF002D881EF0CF00500FA6E27505C
:1018F600FD6E2850FE6EFF6AFA5012001200F0903C
:1019060029502A10D8B48AEF0CF08CEF0CF098EF1F
:101916000CF002D898EF0CF00500FA6E2950FD6E17
:101926002A50FE6EFF6AFA5012001200F2922B50F5
:101936002C10D8B4A1EF0CF0A3EF0CF0AFEF0CF025
:1019460002D8AFEF0CF00500FA6E2B50FD6E2C504E
:10195600FE6EFF6AFA5012001200010E6D6E6B5099
:101966006C10D8A4B9EF0CF0BBEF0CF0BEEF0CF086
:101976006D6AC2EF0CF06BC027F06CC028F06D509A
:101986001200010E6D6E6B506C10D8A4CDEF0CF0EA
:10199600CFEF0CF0D2EF0CF06D6AD6EF0CF06BC007
:1019A60029F06CC02AF06D501200010E6D6E6B505E
:1019B6006C10D8A4E1EF0CF0E3EF0CF0E6EF0CF0BE
:1019C6006D6AEAEF0CF06BC02BF06CC02CF06D501A
:1019D60012007150D8A4F2EF0CF0F4EF0CF0F7EF10
:1019E6000CF0726AFDEF0CF07150020F6B6EB5ECE5
:1019F6000AF0726E725012008081828384898A8B0B
:101A06008C8D9293949596685A622A1A622A0101DD
:101A16000101C81A41000000676EF2906750D8A411
:101A260017EF0DF019EF0DF01BEF0DF01BEF0DF09A
:101A36001200676EF2906750D8A424EF0DF026EFDF
:101A46000DF028EF0DF028EF0DF01200676EF29002
:101A56006750D8A431EF0DF033EF0DF035EF0DF0F0
:101A660035EF0DF01200676EF2906750D8A43EEF86
:101A76000DF040EF0DF042EF0DF042EF0DF01200C9
:101A8600610E736E27EC0CF0F28EF28C94904AEF96
:101A96000DF007EF00F0A1920850B36E07C0B2FF39
:101AA60012009E900E50CF6E0DC0CEFF1200F29423
:101AB6001250D76E11C0D6FF12009E9237C0CCFFCF
:101AC6001200010E8B1A12009E9612009E961200AC
:101AD600A19612009D981200A19012009E941200E9
:041AE60012001200D8
:020000040030CA
:0E000000FF02091EFF8181FF0FC00FE00F40BD
:00000001FF
