:0400000066EF00F0B7
:100008005082FACF3AF0FBCF3BF0D9CF3CF0DACFB1
:100018003DF0F3CF3EF0F4CF3FF0F6CF40F0F7CF0E
:1000280041F0F8CF42F0F5CF43F0F2AC1EEF00F00C
:1000380020EF00F050EF00F0F2AA25EF00F027EFD4
:1000480000F030EF00F0F2A42CEF00F02EEF00F0FB
:1000580030EF00F0C1EC0BF0A0A635EF00F037EF61
:1000680000F040EF00F0A1A63CEF00F03EEF00F0FA
:1000780040EF00F024EC0DF09DA645EF00F047EFAF
:1000880000F050EF00F09EA64CEF00F04EEF00F0AD
:1000980050EF00F021EC0DF043C0F5FF42C0F8FF2F
:1000A80041C0F7FF40C0F6FF3FC0F4FF3EC0F3FF7A
:1000B8003DC0DAFF3CC0D9FF3BC0FBFF3AC0FAFFA6
:0800C800509211000CEF0CF046
:10100000004C1700000000241A00000000421900E4
:1010100000000000000000000000000000000000D0
:101020000000000000000000000C19F01800000093
:10103000009018000008177C16C216000000006817
:1010400018D41800004E1ABE19B2192216F4141A38
:101050001A101AA619061AEC17000000000000D496
:10106000190000203C3E2054696D65203A20004163
:101070006C61726D21210D0044617465203A20007D
:01108000006F
:1010820094EC0CF0700E446E1A0E456EEAEC0CF005
:10109200F28EF28C000E466E500E456E310E476E89
:1010A200000E496E010E486E310E4A6E000E4C6EF5
:1010B200010E4B6E61EC0BF034EC0CF00009D8A47D
:1010C20065EF08F067EF08F05DEF08F03128D8A46B
:1010D2006DEF08F06FEF08F071EF08F0080E316E57
:1010E2004F50D8B477EF08F079EF08F082EF08F0AC
:1010F2004F062A0E4B6EE2EC0AF02A0E476E4BECBC
:1011020009F0000E466E4D0E456E330E476E000E10
:10111200496E010E486E340E4A6E000E4C6E010E80
:101122004B6E61EC0BF034EC0CF00009D8A49CEF90
:1011320008F09EEF08F094EF08F0030E4E6E080ED2
:101142004D6E770EE82EFED74D2EFCD74E2EFAD7D7
:10115200000032C029F02E0E3460B2EF08F0B4EF76
:1011620008F0B7EF08F0326AC5EF08F0330E3460CA
:10117200BDEF08F0BFEF08F0C3EF08F0010E326ECA
:10118200C5EF08F0020E326E29503218D8B4CCEFF7
:1011920008F0CEEF08F071EF08F0000E466E080E70
:1011A200456E320E476E486A000E4A6E010E496E57
:1011B20084EC0BF034EC0CF00009D8A4E3EF08F057
:1011C200E5EF08F0DBEF08F0020E3218D8A4ECEFDE
:1011D20008F0EEEF08F046EF09F0898E6F0E456ECB
:1011E2004550D8A4100E466E3FEC0AF02CC02DF0EC
:1011F2002BC02CF02AC02BF031C02AF0080E312669
:10120200000E466E500E456E2A0E476E486A000E5C
:101212004A6E070E496E84EC0BF034EC0CF00009B8
:10122200D8A416EF09F018EF09F00EEF09F01A0E24
:101232004D6EF80EE82EFED74D2EFCD700F000F0D2
:101242002A6A31C02BF0000E466E500E456E2A0EF1
:10125200476E486A000E4A6E020E496E84EC0BF02D
:1012620034EC0CF00009D8A439EF09F03BEF09F097
:1012720031EF09F01A0E4D6EF80EE82EFED74D2E04
:10128200FCD700F000F071EF08F0899E71EF08F0D2
:1012920066EF00F0780E456E4550D8A4100E466EEB
:1012A2003FEC0AF020EE60F0080EDE6AE806FDE28E
:1012B2004750D96EDA6A060ED926DF50486E483892
:1012C2000F0B300F0001606F4750D96EDA6A060EBD
:1012D200D926DF500F0B300F616F2D0E626F475012
:1012E200D96EDA6A050ED926DF50486E48380F0BE0
:1012F200300F636F4750D96EDA6A050ED926DF5078
:101302000F0B300F646F2D0E656F4750D96EDA6A7E
:10131200040ED926DF50486E48380F0B300F666F27
:101322004750D96EDA6A040ED926DF500F0B300F00
:10133200676F600E456E466A3FEC0AF0630E456EBB
:101342004550D8A4100E466E3FEC0AF04750D96EB5
:10135200DA6A020ED926DF50486E48380F0B300F7A
:101362000001606F4750D96EDA6A020ED926DF504B
:101372000F0B300F616F3A0E626F4750D96EDA6A07
:10138200010ED926DF50486E48380F0B300F636FBD
:101392004750D96EDA6A010ED926DF500F0B300F93
:1013A200646F3A0E656F4750D96EDA6ADF50486E45
:1013B20048380F0B300F666F4750D96EDA6ADF502C
:1013C2000F0B300F676F600E456E466A3FEC0AF0F6
:1013D2000D0E12EC0DF0120044EC0DF0BFEC0CF00F
:1013E2000009D8B4F7EF09F0F9EF09F009EF0AF0B4
:1013F200ABEC0CF00009D8B401EF0AF003EF0AF0ED
:1014020009EF0AF0050E0D6E010E0C6E21EF0AF0C7
:10141200B5EC0CF00009D8B411EF0AF013EF0AF0A2
:1014220021EF0AF0ABEC0CF00009D8B41BEF0AF084
:101432001DEF0AF021EF0AF0050E0D6E020E0C6E82
:101442000D50020DF350450F376E37C0F6FF100EE8
:10145200F76EF86A0900F5CF38F00900F5CF39F0D8
:1014620002D83DEF0AF00500FA6E3850FD6E395091
:10147200FE6EFF6AFA5012000D6E120060EF0AF063
:1014820045C0F6FF46C0F7FF000EF86E0F0EF76478
:1014920003D00800F55005D0F6CFE9FFF7CFEAFFF9
:1014A200EF5012EC0DF0A1EC0CF00009D8B45CEF97
:1014B2000AF05EEF0AF054EF0AF0454A462A45C0A8
:1014C200F6FF46C0F7FF000EF86E0F0EF76403D06A
:1014D2000800F55005D0F6CFE9FFF7CFEAFFEF504D
:1014E2000009D8A477EF0AF079EF0AF041EF0AF089
:1014F2001200040E356EC9EC0CF00009D8B484EF6A
:101502000AF086EF0AF0AEEF0AF009500A10D8B4DA
:101512008DEF0AF08FEF0AF099EF0AF00850D96EBA
:10152200DA6A40EC0DF0DF6E082A0906D8A00A0636
:1015320009500A10D8B4A0EF0AF0A2EF0AF0A6EF01
:101542000AF02DEC0DF0B0EF0AF03CEC0DF02AECB5
:101552000DF0070E356EB0EF0AF03EEC0DF035508F
:101562001200060E0D6E030E0C6E46EC0DF00D50C1
:10157200020DF350450F376E37C0F6FF100EF76EAF
:10158200F86A0900F5CF38F00900F5CF39F002D832
:10159200D4EF0AF00500FA6E3850FD6E3950FE6E37
:1015A200FF6AFA5012000D6E02D8E1EF0AF0050050
:1015B200FA6E1750FD6E1850FE6EFF6AFA50120056
:1015C2001200000E466E680E456E000E476E000E4B
:1015D200486E000E4A6E010E496E84EC0BF034EC3C
:1015E2000CF00009D8A4F8EF0AF0FAEF0AF0F0EFD5
:1015F2000AF0000E466E680E456E4BC047F0000EB4
:10160200496E070E486E3EEC0BF034EC0CF000090C
:10161200D8A40EEF0BF010EF0BF006EF0BF0120058
:1016220006500710D8B418EF0BF01AEF0BF02AEFA0
:101632000BF00606D8A0070604C0D9FF05C0DAFFE2
:10164200044A052ADF501AEC0DF0030E366E3CEF09
:101652000BF00B50D8B430EF0BF032EF0BF039EF48
:101662000BF00B6A3AEC0DF0010E366E3CEF0BF00C
:10167200D3EC0CF0366E3650120034EC0CF000094C
:10168200D8A446EF0BF048EF0BF060EF0BF0010E21
:10169200016E45C002F046C003F00B6A47C008F075
:1016A20048C009F049C00AF0000E046E000E056E33
:1016B200000E076E000E066E0C6AE5EC0CF01200CE
:1016C20034EC0CF00009D8A469EF0BF06BEF0BF0CF
:1016D20083EF0BF0010E016E45C002F046C003F02D
:1016E200010E0B6E47C004F0056A48C006F049C0FF
:1016F20007F04AC008F04BC009F04CC00AF00C6A6F
:10170200FEEC0CF0120034EC0CF00009D8A48CEFC3
:101712000BF08EEF0BF0A5EF0BF0010E016E45C042
:1017220002F046C003F00B6A47C004F048C005F05F
:1017320049C006F04AC007F0086A000E0A6E000EA1
:10174200096E0C6AFEEC0CF01200480EB86E900E98
:10175200AB6E260EAC6ECF0EAF6EB06A9E98000EC8
:10176200446E000E456E86EC0CF0000E446E000EC8
:10177200456E78EC0CF0000E246E000E236E120003
:10178200F2942850D76E27C0D6FF25502610D8B421
:10179200CDEF0BF0CFEF0BF0DBEF0BF002D8DBEF6E
:1017A2000BF00500FA6E2550FD6E2650FE6EFF6AA4
:1017B200FA5012001200D09EF292F18C000E446E8A
:1017C200000E456EF9EC0CF0F090F18A000E446EBA
:1017D200000E456EF4EC0CF0F092F188000E446EAF
:1017E200000E456EEFEC0CF01200D59CC20ED76EC7
:1017F200F70ED66ED750466ED650276E46C028F0EA
:10180200F294F28A960ED56E900E446E1A0E456EC2
:10181200EAEC0CF01200940EF66E1A0EF76E000E41
:10182200F86E0900F5CF4FF000EE01F0340EEE6ACB
:10183200E806FDE150905092000141EF08F0896AFC
:101842008A6A180E8B6E8C6A8D6A7F0E926E93680E
:10185200BF0E946E9568070E966E1F0E7F6E7C68A3
:101862007D6AF2861200010E446E0150D8A43CEF4C
:101872000CF03EEF0CF046EF0CF0C7B643EF0CF065
:1018820045EF0CF046EF0CF0446A44501200800E13
:10189200C76E080EC66EC56A130EC86E1EEC0DF03A
:1018A200920E446E1A0E456E6AEC0CF0C68A120055
:1018B200016A000E036E0268000E046E000E056ED1
:1018C200086A0D6A44EC0DF046EC0DF030EC0DF0B8
:1018D200120044504510D8B471EF0CF073EF0CF0C5
:1018E20077EF0CF044C017F045C018F012004450D6
:1018F2004510D8B47FEF0CF081EF0CF085EF0CF0BF
:1019020044C01FF045C020F0120044504510D8B426
:101912008DEF0CF08FEF0CF093EF0CF044C021F040
:1019220045C022F0120016EC0DF020EC0CF0A6ECF3
:101932000BF048EC0CF0F6EC0BF0DCEC0BF01200C8
:10194200ACB2A6EF0CF0A9EF0CF0010EAAEF0CF06E
:10195200000E1200C5BCB0EF0CF0B3EF0CF0010E9C
:10196200B4EF0CF0000E1200C7BABAEF0CF0BDEFE4
:101972000CF0010EBEEF0CF0000E1200C7AAC4EF6D
:101982000CF0C7EF0CF0010EC8EF0CF0000E1200C5
:10199200C7B0CEEF0CF0D1EF0CF0010ED2EF0CF08D
:1019A200000E120042EC0DF059EC0CF0000E120089
:1019B200025002241AEC0DF0030E1200D8800234F9
:1019C2001AEC0DF0040E120036EC0DF0010E0D6E45
:1019D200120044C025F045C026F0120044C019F0A0
:1019E20045C01AF0120044C01BF045C01CF01200A2
:1019F20044C01DF045C01EF0120036EC0DF0020E80
:101A02000D6E120033EC0DF0016A000E120003ECB1
:101A12000DF0356E35501200D3EC0CF0356E3550AA
:101A22001200446E44C0ADFF1200600ED36E9B6A7A
:101A32001200356E35C0C9FF12009D86A0861200C5
:101A4200EDEC09F01200B2EC0AF01200016A080E85
:101A52001200C58AC5881200C59AC5881200C69EA2
:101A6200C69C1200C69AC68A1200C58012004F2A6E
:101A72001200C5821200C5921200C5861200C9501A
:101A82001200C58412009E961200A1961200120046
:031A92001200013E
:020000040030CA
:0E000000FF081F1EFF8B85FF0FC00FE00F4093
:00000001FF
